{
  "contractName": "BnbPricePrediction",
  "abi": [
    {
      "inputs": [
        {
          "internalType": "contract AggregatorV3Interface",
          "name": "_oracle",
          "type": "address"
        },
        {
          "internalType": "address",
          "name": "_adminAddress",
          "type": "address"
        },
        {
          "internalType": "address",
          "name": "_operatorAddress",
          "type": "address"
        },
        {
          "internalType": "uint256",
          "name": "_intervalBlocks",
          "type": "uint256"
        },
        {
          "internalType": "uint256",
          "name": "_bufferBlocks",
          "type": "uint256"
        },
        {
          "internalType": "uint256",
          "name": "_minBetAmount",
          "type": "uint256"
        },
        {
          "internalType": "uint256",
          "name": "_oracleUpdateAllowance",
          "type": "uint256"
        }
      ],
      "payable": false,
      "stateMutability": "nonpayable",
      "type": "constructor"
    },
    {
      "anonymous": false,
      "inputs": [
        {
          "indexed": true,
          "internalType": "address",
          "name": "sender",
          "type": "address"
        },
        {
          "indexed": true,
          "internalType": "uint256",
          "name": "currentEpoch",
          "type": "uint256"
        },
        {
          "indexed": false,
          "internalType": "uint256",
          "name": "amount",
          "type": "uint256"
        }
      ],
      "name": "BetBear",
      "type": "event"
    },
    {
      "anonymous": false,
      "inputs": [
        {
          "indexed": true,
          "internalType": "address",
          "name": "sender",
          "type": "address"
        },
        {
          "indexed": true,
          "internalType": "uint256",
          "name": "currentEpoch",
          "type": "uint256"
        },
        {
          "indexed": false,
          "internalType": "uint256",
          "name": "amount",
          "type": "uint256"
        }
      ],
      "name": "BetBull",
      "type": "event"
    },
    {
      "anonymous": false,
      "inputs": [
        {
          "indexed": true,
          "internalType": "address",
          "name": "sender",
          "type": "address"
        },
        {
          "indexed": true,
          "internalType": "uint256",
          "name": "currentEpoch",
          "type": "uint256"
        },
        {
          "indexed": false,
          "internalType": "uint256",
          "name": "amount",
          "type": "uint256"
        }
      ],
      "name": "Claim",
      "type": "event"
    },
    {
      "anonymous": false,
      "inputs": [
        {
          "indexed": false,
          "internalType": "uint256",
          "name": "amount",
          "type": "uint256"
        }
      ],
      "name": "ClaimTreasury",
      "type": "event"
    },
    {
      "anonymous": false,
      "inputs": [
        {
          "indexed": true,
          "internalType": "uint256",
          "name": "epoch",
          "type": "uint256"
        },
        {
          "indexed": false,
          "internalType": "uint256",
          "name": "blockNumber",
          "type": "uint256"
        },
        {
          "indexed": false,
          "internalType": "int256",
          "name": "price",
          "type": "int256"
        }
      ],
      "name": "EndRound",
      "type": "event"
    },
    {
      "anonymous": false,
      "inputs": [
        {
          "indexed": true,
          "internalType": "uint256",
          "name": "epoch",
          "type": "uint256"
        },
        {
          "indexed": false,
          "internalType": "uint256",
          "name": "blockNumber",
          "type": "uint256"
        },
        {
          "indexed": false,
          "internalType": "int256",
          "name": "price",
          "type": "int256"
        }
      ],
      "name": "LockRound",
      "type": "event"
    },
    {
      "anonymous": false,
      "inputs": [
        {
          "indexed": true,
          "internalType": "uint256",
          "name": "epoch",
          "type": "uint256"
        },
        {
          "indexed": false,
          "internalType": "uint256",
          "name": "minBetAmount",
          "type": "uint256"
        }
      ],
      "name": "MinBetAmountUpdated",
      "type": "event"
    },
    {
      "anonymous": false,
      "inputs": [
        {
          "indexed": true,
          "internalType": "address",
          "name": "previousOwner",
          "type": "address"
        },
        {
          "indexed": true,
          "internalType": "address",
          "name": "newOwner",
          "type": "address"
        }
      ],
      "name": "OwnershipTransferred",
      "type": "event"
    },
    {
      "anonymous": false,
      "inputs": [
        {
          "indexed": false,
          "internalType": "uint256",
          "name": "epoch",
          "type": "uint256"
        }
      ],
      "name": "Pause",
      "type": "event"
    },
    {
      "anonymous": false,
      "inputs": [
        {
          "indexed": false,
          "internalType": "address",
          "name": "account",
          "type": "address"
        }
      ],
      "name": "Paused",
      "type": "event"
    },
    {
      "anonymous": false,
      "inputs": [
        {
          "indexed": true,
          "internalType": "uint256",
          "name": "epoch",
          "type": "uint256"
        },
        {
          "indexed": false,
          "internalType": "uint256",
          "name": "rewardRate",
          "type": "uint256"
        },
        {
          "indexed": false,
          "internalType": "uint256",
          "name": "treasuryRate",
          "type": "uint256"
        }
      ],
      "name": "RatesUpdated",
      "type": "event"
    },
    {
      "anonymous": false,
      "inputs": [
        {
          "indexed": true,
          "internalType": "uint256",
          "name": "epoch",
          "type": "uint256"
        },
        {
          "indexed": false,
          "internalType": "uint256",
          "name": "rewardBaseCalAmount",
          "type": "uint256"
        },
        {
          "indexed": false,
          "internalType": "uint256",
          "name": "rewardAmount",
          "type": "uint256"
        },
        {
          "indexed": false,
          "internalType": "uint256",
          "name": "treasuryAmount",
          "type": "uint256"
        }
      ],
      "name": "RewardsCalculated",
      "type": "event"
    },
    {
      "anonymous": false,
      "inputs": [
        {
          "indexed": true,
          "internalType": "uint256",
          "name": "epoch",
          "type": "uint256"
        },
        {
          "indexed": false,
          "internalType": "uint256",
          "name": "blockNumber",
          "type": "uint256"
        }
      ],
      "name": "StartRound",
      "type": "event"
    },
    {
      "anonymous": false,
      "inputs": [
        {
          "indexed": false,
          "internalType": "uint256",
          "name": "epoch",
          "type": "uint256"
        }
      ],
      "name": "Unpause",
      "type": "event"
    },
    {
      "anonymous": false,
      "inputs": [
        {
          "indexed": false,
          "internalType": "address",
          "name": "account",
          "type": "address"
        }
      ],
      "name": "Unpaused",
      "type": "event"
    },
    {
      "constant": true,
      "inputs": [],
      "name": "TOTAL_RATE",
      "outputs": [
        {
          "internalType": "uint256",
          "name": "",
          "type": "uint256"
        }
      ],
      "payable": false,
      "stateMutability": "view",
      "type": "function"
    },
    {
      "constant": true,
      "inputs": [],
      "name": "adminAddress",
      "outputs": [
        {
          "internalType": "address",
          "name": "",
          "type": "address"
        }
      ],
      "payable": false,
      "stateMutability": "view",
      "type": "function"
    },
    {
      "constant": true,
      "inputs": [],
      "name": "bufferBlocks",
      "outputs": [
        {
          "internalType": "uint256",
          "name": "",
          "type": "uint256"
        }
      ],
      "payable": false,
      "stateMutability": "view",
      "type": "function"
    },
    {
      "constant": true,
      "inputs": [],
      "name": "currentEpoch",
      "outputs": [
        {
          "internalType": "uint256",
          "name": "",
          "type": "uint256"
        }
      ],
      "payable": false,
      "stateMutability": "view",
      "type": "function"
    },
    {
      "constant": true,
      "inputs": [],
      "name": "genesisLockOnce",
      "outputs": [
        {
          "internalType": "bool",
          "name": "",
          "type": "bool"
        }
      ],
      "payable": false,
      "stateMutability": "view",
      "type": "function"
    },
    {
      "constant": true,
      "inputs": [],
      "name": "genesisStartOnce",
      "outputs": [
        {
          "internalType": "bool",
          "name": "",
          "type": "bool"
        }
      ],
      "payable": false,
      "stateMutability": "view",
      "type": "function"
    },
    {
      "constant": true,
      "inputs": [],
      "name": "intervalBlocks",
      "outputs": [
        {
          "internalType": "uint256",
          "name": "",
          "type": "uint256"
        }
      ],
      "payable": false,
      "stateMutability": "view",
      "type": "function"
    },
    {
      "constant": true,
      "inputs": [
        {
          "internalType": "uint256",
          "name": "",
          "type": "uint256"
        },
        {
          "internalType": "address",
          "name": "",
          "type": "address"
        }
      ],
      "name": "ledger",
      "outputs": [
        {
          "internalType": "enum BnbPricePrediction.Position",
          "name": "position",
          "type": "uint8"
        },
        {
          "internalType": "uint256",
          "name": "amount",
          "type": "uint256"
        },
        {
          "internalType": "bool",
          "name": "claimed",
          "type": "bool"
        }
      ],
      "payable": false,
      "stateMutability": "view",
      "type": "function"
    },
    {
      "constant": true,
      "inputs": [],
      "name": "minBetAmount",
      "outputs": [
        {
          "internalType": "uint256",
          "name": "",
          "type": "uint256"
        }
      ],
      "payable": false,
      "stateMutability": "view",
      "type": "function"
    },
    {
      "constant": true,
      "inputs": [],
      "name": "operatorAddress",
      "outputs": [
        {
          "internalType": "address",
          "name": "",
          "type": "address"
        }
      ],
      "payable": false,
      "stateMutability": "view",
      "type": "function"
    },
    {
      "constant": true,
      "inputs": [],
      "name": "oracleLatestRoundId",
      "outputs": [
        {
          "internalType": "uint256",
          "name": "",
          "type": "uint256"
        }
      ],
      "payable": false,
      "stateMutability": "view",
      "type": "function"
    },
    {
      "constant": true,
      "inputs": [],
      "name": "oracleUpdateAllowance",
      "outputs": [
        {
          "internalType": "uint256",
          "name": "",
          "type": "uint256"
        }
      ],
      "payable": false,
      "stateMutability": "view",
      "type": "function"
    },
    {
      "constant": true,
      "inputs": [],
      "name": "owner",
      "outputs": [
        {
          "internalType": "address",
          "name": "",
          "type": "address"
        }
      ],
      "payable": false,
      "stateMutability": "view",
      "type": "function"
    },
    {
      "constant": true,
      "inputs": [],
      "name": "paused",
      "outputs": [
        {
          "internalType": "bool",
          "name": "",
          "type": "bool"
        }
      ],
      "payable": false,
      "stateMutability": "view",
      "type": "function"
    },
    {
      "constant": false,
      "inputs": [],
      "name": "renounceOwnership",
      "outputs": [],
      "payable": false,
      "stateMutability": "nonpayable",
      "type": "function"
    },
    {
      "constant": true,
      "inputs": [],
      "name": "rewardRate",
      "outputs": [
        {
          "internalType": "uint256",
          "name": "",
          "type": "uint256"
        }
      ],
      "payable": false,
      "stateMutability": "view",
      "type": "function"
    },
    {
      "constant": true,
      "inputs": [
        {
          "internalType": "uint256",
          "name": "",
          "type": "uint256"
        }
      ],
      "name": "rounds",
      "outputs": [
        {
          "internalType": "uint256",
          "name": "epoch",
          "type": "uint256"
        },
        {
          "internalType": "uint256",
          "name": "startBlock",
          "type": "uint256"
        },
        {
          "internalType": "uint256",
          "name": "lockBlock",
          "type": "uint256"
        },
        {
          "internalType": "uint256",
          "name": "endBlock",
          "type": "uint256"
        },
        {
          "internalType": "int256",
          "name": "lockPrice",
          "type": "int256"
        },
        {
          "internalType": "int256",
          "name": "closePrice",
          "type": "int256"
        },
        {
          "internalType": "uint256",
          "name": "totalAmount",
          "type": "uint256"
        },
        {
          "internalType": "uint256",
          "name": "bullAmount",
          "type": "uint256"
        },
        {
          "internalType": "uint256",
          "name": "bearAmount",
          "type": "uint256"
        },
        {
          "internalType": "uint256",
          "name": "rewardBaseCalAmount",
          "type": "uint256"
        },
        {
          "internalType": "uint256",
          "name": "rewardAmount",
          "type": "uint256"
        },
        {
          "internalType": "bool",
          "name": "oracleCalled",
          "type": "bool"
        }
      ],
      "payable": false,
      "stateMutability": "view",
      "type": "function"
    },
    {
      "constant": false,
      "inputs": [
        {
          "internalType": "address",
          "name": "newOwner",
          "type": "address"
        }
      ],
      "name": "transferOwnership",
      "outputs": [],
      "payable": false,
      "stateMutability": "nonpayable",
      "type": "function"
    },
    {
      "constant": true,
      "inputs": [],
      "name": "treasuryAmount",
      "outputs": [
        {
          "internalType": "uint256",
          "name": "",
          "type": "uint256"
        }
      ],
      "payable": false,
      "stateMutability": "view",
      "type": "function"
    },
    {
      "constant": true,
      "inputs": [],
      "name": "treasuryRate",
      "outputs": [
        {
          "internalType": "uint256",
          "name": "",
          "type": "uint256"
        }
      ],
      "payable": false,
      "stateMutability": "view",
      "type": "function"
    },
    {
      "constant": true,
      "inputs": [
        {
          "internalType": "address",
          "name": "",
          "type": "address"
        },
        {
          "internalType": "uint256",
          "name": "",
          "type": "uint256"
        }
      ],
      "name": "userRounds",
      "outputs": [
        {
          "internalType": "uint256",
          "name": "",
          "type": "uint256"
        }
      ],
      "payable": false,
      "stateMutability": "view",
      "type": "function"
    },
    {
      "constant": false,
      "inputs": [
        {
          "internalType": "address",
          "name": "_adminAddress",
          "type": "address"
        }
      ],
      "name": "setAdmin",
      "outputs": [],
      "payable": false,
      "stateMutability": "nonpayable",
      "type": "function"
    },
    {
      "constant": false,
      "inputs": [
        {
          "internalType": "address",
          "name": "_operatorAddress",
          "type": "address"
        }
      ],
      "name": "setOperator",
      "outputs": [],
      "payable": false,
      "stateMutability": "nonpayable",
      "type": "function"
    },
    {
      "constant": false,
      "inputs": [
        {
          "internalType": "uint256",
          "name": "_intervalBlocks",
          "type": "uint256"
        }
      ],
      "name": "setIntervalBlocks",
      "outputs": [],
      "payable": false,
      "stateMutability": "nonpayable",
      "type": "function"
    },
    {
      "constant": false,
      "inputs": [
        {
          "internalType": "uint256",
          "name": "_bufferBlocks",
          "type": "uint256"
        }
      ],
      "name": "setBufferBlocks",
      "outputs": [],
      "payable": false,
      "stateMutability": "nonpayable",
      "type": "function"
    },
    {
      "constant": false,
      "inputs": [
        {
          "internalType": "address",
          "name": "_oracle",
          "type": "address"
        }
      ],
      "name": "setOracle",
      "outputs": [],
      "payable": false,
      "stateMutability": "nonpayable",
      "type": "function"
    },
    {
      "constant": false,
      "inputs": [
        {
          "internalType": "uint256",
          "name": "_oracleUpdateAllowance",
          "type": "uint256"
        }
      ],
      "name": "setOracleUpdateAllowance",
      "outputs": [],
      "payable": false,
      "stateMutability": "nonpayable",
      "type": "function"
    },
    {
      "constant": false,
      "inputs": [
        {
          "internalType": "uint256",
          "name": "_rewardRate",
          "type": "uint256"
        }
      ],
      "name": "setRewardRate",
      "outputs": [],
      "payable": false,
      "stateMutability": "nonpayable",
      "type": "function"
    },
    {
      "constant": false,
      "inputs": [
        {
          "internalType": "uint256",
          "name": "_treasuryRate",
          "type": "uint256"
        }
      ],
      "name": "setTreasuryRate",
      "outputs": [],
      "payable": false,
      "stateMutability": "nonpayable",
      "type": "function"
    },
    {
      "constant": false,
      "inputs": [
        {
          "internalType": "uint256",
          "name": "_minBetAmount",
          "type": "uint256"
        }
      ],
      "name": "setMinBetAmount",
      "outputs": [],
      "payable": false,
      "stateMutability": "nonpayable",
      "type": "function"
    },
    {
      "constant": false,
      "inputs": [],
      "name": "genesisStartRound",
      "outputs": [],
      "payable": false,
      "stateMutability": "nonpayable",
      "type": "function"
    },
    {
      "constant": false,
      "inputs": [],
      "name": "genesisLockRound",
      "outputs": [],
      "payable": false,
      "stateMutability": "nonpayable",
      "type": "function"
    },
    {
      "constant": false,
      "inputs": [],
      "name": "executeRound",
      "outputs": [],
      "payable": false,
      "stateMutability": "nonpayable",
      "type": "function"
    },
    {
      "constant": false,
      "inputs": [],
      "name": "betBear",
      "outputs": [],
      "payable": true,
      "stateMutability": "payable",
      "type": "function"
    },
    {
      "constant": false,
      "inputs": [],
      "name": "betBull",
      "outputs": [],
      "payable": true,
      "stateMutability": "payable",
      "type": "function"
    },
    {
      "constant": false,
      "inputs": [
        {
          "internalType": "uint256",
          "name": "epoch",
          "type": "uint256"
        }
      ],
      "name": "claim",
      "outputs": [],
      "payable": false,
      "stateMutability": "nonpayable",
      "type": "function"
    },
    {
      "constant": false,
      "inputs": [],
      "name": "claimTreasury",
      "outputs": [],
      "payable": false,
      "stateMutability": "nonpayable",
      "type": "function"
    },
    {
      "constant": true,
      "inputs": [
        {
          "internalType": "address",
          "name": "user",
          "type": "address"
        },
        {
          "internalType": "uint256",
          "name": "cursor",
          "type": "uint256"
        },
        {
          "internalType": "uint256",
          "name": "size",
          "type": "uint256"
        }
      ],
      "name": "getUserRounds",
      "outputs": [
        {
          "internalType": "uint256[]",
          "name": "",
          "type": "uint256[]"
        },
        {
          "internalType": "uint256",
          "name": "",
          "type": "uint256"
        }
      ],
      "payable": false,
      "stateMutability": "view",
      "type": "function"
    },
    {
      "constant": false,
      "inputs": [],
      "name": "pause",
      "outputs": [],
      "payable": false,
      "stateMutability": "nonpayable",
      "type": "function"
    },
    {
      "constant": false,
      "inputs": [],
      "name": "unpause",
      "outputs": [],
      "payable": false,
      "stateMutability": "nonpayable",
      "type": "function"
    },
    {
      "constant": true,
      "inputs": [
        {
          "internalType": "uint256",
          "name": "epoch",
          "type": "uint256"
        },
        {
          "internalType": "address",
          "name": "user",
          "type": "address"
        }
      ],
      "name": "claimable",
      "outputs": [
        {
          "internalType": "bool",
          "name": "",
          "type": "bool"
        }
      ],
      "payable": false,
      "stateMutability": "view",
      "type": "function"
    },
    {
      "constant": true,
      "inputs": [
        {
          "internalType": "uint256",
          "name": "epoch",
          "type": "uint256"
        },
        {
          "internalType": "address",
          "name": "user",
          "type": "address"
        }
      ],
      "name": "refundable",
      "outputs": [
        {
          "internalType": "bool",
          "name": "",
          "type": "bool"
        }
      ],
      "payable": false,
      "stateMutability": "view",
      "type": "function"
    }
  ],
  "bytecode": "0x6080604052605a600c55600a600d556000601060006101000a81548160ff0219169083151502179055506000601060016101000a81548160ff0219169083151502179055503480156200005157600080fd5b506040516200569338038062005693833981810160405260e08110156200007757600080fd5b81019080805190602001909291908051906020019092919080519060200190929190805190602001909291908051906020019092919080519060200190929190805190602001909291905050506000620000d66200027a60201b60201c565b9050806000806101000a81548173ffffffffffffffffffffffffffffffffffffffff021916908373ffffffffffffffffffffffffffffffffffffffff1602179055508073ffffffffffffffffffffffffffffffffffffffff16600073ffffffffffffffffffffffffffffffffffffffff167f8be0079c531659141344cd1fd0a4f28419497f9722a3daafe3b4186f6b6457e060405160405180910390a35060008060146101000a81548160ff02191690831515021790555086600a60006101000a81548173ffffffffffffffffffffffffffffffffffffffff021916908373ffffffffffffffffffffffffffffffffffffffff16021790555085600760006101000a81548173ffffffffffffffffffffffffffffffffffffffff021916908373ffffffffffffffffffffffffffffffffffffffff16021790555084600860006101000a81548173ffffffffffffffffffffffffffffffffffffffff021916908373ffffffffffffffffffffffffffffffffffffffff160217905550836005819055508260068190555081600e8190555080600f819055505050505050505062000282565b600033905090565b61540180620002926000396000f3fe60806040526004361061024f5760003560e01c8063821daba111610139578063b3ab15fb116100b6578063e4b725161161007a578063e4b7251614610b17578063ec32470314610b42578063f2fde38b14610b6d578063f7fdec2814610bbe578063fa968eea14610bed578063fc6f946814610c185761024f565b8063b3ab15fb146109ca578063cf2f503914610a1b578063d0bf9c5414610a56578063d9d55eac14610a91578063dd1f759614610aa85761024f565b80639780a752116100fd5780639780a7521461088b5780639e447fc6146108b6578063a067455b146108f1578063a0c7f71c1461092c578063b29c299b1461099f5761024f565b8063821daba1146106b25780638456cb59146106bc5780638c65c81f146106d35780638da5cb5b14610773578063951fd600146107ca5761024f565b80635c975abb116101d25780637285c58b116101965780637285c58b146104f257806376671808146105815780637adbf973146105ac5780637b0a47ee146105fd5780637b3205f5146106285780637bf412541461063f5761024f565b80635c975abb146103f557806360554011146104245780636c1885931461044f578063704b6c021461048a578063715018a6146104db5761024f565b80631ec9f34b116102195780631ec9f34b14610336578063368acb0914610361578063379607f51461038c5780633f4ba83a146103c7578063452fd75a146103de5761024f565b80623bdc741461025457806288160f1461026b5780630f74174f1461027557806310c0ee64146102a4578063127effb2146102df575b600080fd5b34801561026057600080fd5b50610269610c6f565b005b610273610da7565b005b34801561028157600080fd5b5061028a611284565b604051808215151515815260200191505060405180910390f35b3480156102b057600080fd5b506102dd600480360360208110156102c757600080fd5b8101908080359060200190929190505050611297565b005b3480156102eb57600080fd5b506102f46113bf565b604051808273ffffffffffffffffffffffffffffffffffffffff1673ffffffffffffffffffffffffffffffffffffffff16815260200191505060405180910390f35b34801561034257600080fd5b5061034b6113e5565b6040518082815260200191505060405180910390f35b34801561036d57600080fd5b506103766113eb565b6040518082815260200191505060405180910390f35b34801561039857600080fd5b506103c5600480360360208110156103af57600080fd5b81019080803590602001909291905050506113f1565b005b3480156103d357600080fd5b506103dc611a7f565b005b3480156103ea57600080fd5b506103f3611c35565b005b34801561040157600080fd5b5061040a611e0d565b604051808215151515815260200191505060405180910390f35b34801561043057600080fd5b50610439611e23565b6040518082815260200191505060405180910390f35b34801561045b57600080fd5b506104886004803603602081101561047257600080fd5b8101908080359060200190929190505050611e29565b005b34801561049657600080fd5b506104d9600480360360208110156104ad57600080fd5b81019080803573ffffffffffffffffffffffffffffffffffffffff169060200190929190505050611f32565b005b3480156104e757600080fd5b506104f06120e2565b005b3480156104fe57600080fd5b5061054b6004803603604081101561051557600080fd5b8101908080359060200190929190803573ffffffffffffffffffffffffffffffffffffffff16906020019092919050505061226a565b6040518084600181111561055b57fe5b60ff16815260200183815260200182151515158152602001935050505060405180910390f35b34801561058d57600080fd5b506105966122bb565b6040518082815260200191505060405180910390f35b3480156105b857600080fd5b506105fb600480360360208110156105cf57600080fd5b81019080803573ffffffffffffffffffffffffffffffffffffffff1690602001909291905050506122c1565b005b34801561060957600080fd5b5061061261246b565b6040518082815260200191505060405180910390f35b34801561063457600080fd5b5061063d612471565b005b34801561064b57600080fd5b506106986004803603604081101561066257600080fd5b8101908080359060200190929190803573ffffffffffffffffffffffffffffffffffffffff16906020019092919050505061267b565b604051808215151515815260200191505060405180910390f35b6106ba61282b565b005b3480156106c857600080fd5b506106d1612d08565b005b3480156106df57600080fd5b5061070c600480360360208110156106f657600080fd5b8101908080359060200190929190505050612ee1565b604051808d81526020018c81526020018b81526020018a8152602001898152602001888152602001878152602001868152602001858152602001848152602001838152602001821515151581526020019c5050505050505050505050505060405180910390f35b34801561077f57600080fd5b50610788612f4e565b604051808273ffffffffffffffffffffffffffffffffffffffff1673ffffffffffffffffffffffffffffffffffffffff16815260200191505060405180910390f35b3480156107d657600080fd5b5061082d600480360360608110156107ed57600080fd5b81019080803573ffffffffffffffffffffffffffffffffffffffff1690602001909291908035906020019092919080359060200190929190505050612f77565b6040518080602001838152602001828103825284818151815260200191508051906020019060200280838360005b8381101561087657808201518184015260208101905061085b565b50505050905001935050505060405180910390f35b34801561089757600080fd5b506108a06130e4565b6040518082815260200191505060405180910390f35b3480156108c257600080fd5b506108ef600480360360208110156108d957600080fd5b81019080803590602001909291905050506130ea565b005b3480156108fd57600080fd5b5061092a6004803603602081101561091457600080fd5b8101908080359060200190929190505050613271565b005b34801561093857600080fd5b506109856004803603604081101561094f57600080fd5b8101908080359060200190929190803573ffffffffffffffffffffffffffffffffffffffff16906020019092919050505061333e565b604051808215151515815260200191505060405180910390f35b3480156109ab57600080fd5b506109b4613545565b6040518082815260200191505060405180910390f35b3480156109d657600080fd5b50610a19600480360360208110156109ed57600080fd5b81019080803573ffffffffffffffffffffffffffffffffffffffff16906020019092919050505061354a565b005b348015610a2757600080fd5b50610a5460048036036020811015610a3e57600080fd5b81019080803590602001909291905050506136f4565b005b348015610a6257600080fd5b50610a8f60048036036020811015610a7957600080fd5b81019080803590602001909291905050506137c1565b005b348015610a9d57600080fd5b50610aa6613948565b005b348015610ab457600080fd5b50610b0160048036036040811015610acb57600080fd5b81019080803573ffffffffffffffffffffffffffffffffffffffff16906020019092919080359060200190929190505050613c23565b6040518082815260200191505060405180910390f35b348015610b2357600080fd5b50610b2c613c51565b6040518082815260200191505060405180910390f35b348015610b4e57600080fd5b50610b57613c57565b6040518082815260200191505060405180910390f35b348015610b7957600080fd5b50610bbc60048036036020811015610b9057600080fd5b81019080803573ffffffffffffffffffffffffffffffffffffffff169060200190929190505050613c5d565b005b348015610bca57600080fd5b50610bd3613d32565b604051808215151515815260200191505060405180910390f35b348015610bf957600080fd5b50610c02613d45565b6040518082815260200191505060405180910390f35b348015610c2457600080fd5b50610c2d613d4b565b604051808273ffffffffffffffffffffffffffffffffffffffff1673ffffffffffffffffffffffffffffffffffffffff16815260200191505060405180910390f35b600760009054906101000a900473ffffffffffffffffffffffffffffffffffffffff1673ffffffffffffffffffffffffffffffffffffffff163373ffffffffffffffffffffffffffffffffffffffff1614610d32576040517f08c379a000000000000000000000000000000000000000000000000000000000815260040180806020018281038252600b8152602001807f61646d696e3a207775743f00000000000000000000000000000000000000000081525060200191505060405180910390fd5b600060095490506000600981905550610d6d600760009054906101000a900473ffffffffffffffffffffffffffffffffffffffff1682613d71565b7f609175abb7f12481e4f200d1ef4fc834e6caac3d9eadba42d664352f6d0932ca816040518082815260200191505060405180910390a150565b610daf611e0d565b15610e22576040517f08c379a00000000000000000000000000000000000000000000000000000000081526004018080602001828103825260108152602001807f5061757361626c653a207061757365640000000000000000000000000000000081525060200191505060405180910390fd5b610e2b33613e35565b15610e9e576040517f08c379a00000000000000000000000000000000000000000000000000000000081526004018080602001828103825260148152602001807f636f6e7472616374206e6f7420616c6c6f77656400000000000000000000000081525060200191505060405180910390fd5b3273ffffffffffffffffffffffffffffffffffffffff163373ffffffffffffffffffffffffffffffffffffffff1614610f3f576040517f08c379a000000000000000000000000000000000000000000000000000000000815260040180806020018281038252601a8152602001807f70726f787920636f6e7472616374206e6f7420616c6c6f77656400000000000081525060200191505060405180910390fd5b610f4a600454613e48565b610fbc576040517f08c379a00000000000000000000000000000000000000000000000000000000081526004018080602001828103825260128152602001807f526f756e64206e6f74206265747461626c65000000000000000000000000000081525060200191505060405180910390fd5b600e54341015611017576040517f08c379a000000000000000000000000000000000000000000000000000000000815260040180806020018281038252602c815260200180615184602c913960400191505060405180910390fd5b600060026000600454815260200190815260200160002060003373ffffffffffffffffffffffffffffffffffffffff1673ffffffffffffffffffffffffffffffffffffffff16815260200190815260200160002060010154146110e2576040517f08c379a000000000000000000000000000000000000000000000000000000000815260040180806020018281038252601b8152602001807f43616e206f6e6c7920626574206f6e63652070657220726f756e64000000000081525060200191505060405180910390fd5b600034905060006001600060045481526020019081526020016000209050611117828260060154613ed090919063ffffffff16565b8160060181905550611136828260080154613ed090919063ffffffff16565b8160080181905550600060026000600454815260200190815260200160002060003373ffffffffffffffffffffffffffffffffffffffff1673ffffffffffffffffffffffffffffffffffffffff168152602001908152602001600020905060018160000160006101000a81548160ff021916908360018111156111b557fe5b0217905550828160010181905550600360003373ffffffffffffffffffffffffffffffffffffffff1673ffffffffffffffffffffffffffffffffffffffff16815260200190815260200160002060045490806001815401808255809150509060018203906000526020600020016000909192909190915055506004543373ffffffffffffffffffffffffffffffffffffffff167f0d8c1fe3e67ab767116a81f122b83c2557a8c2564019cb7c4f83de1aeb1f1f0d856040518082815260200191505060405180910390a3505050565b601060019054906101000a900460ff1681565b600760009054906101000a900473ffffffffffffffffffffffffffffffffffffffff1673ffffffffffffffffffffffffffffffffffffffff163373ffffffffffffffffffffffffffffffffffffffff161461135a576040517f08c379a000000000000000000000000000000000000000000000000000000000815260040180806020018281038252600b8152602001807f61646d696e3a207775743f00000000000000000000000000000000000000000081525060200191505060405180910390fd5b6005548111156113b5576040517f08c379a000000000000000000000000000000000000000000000000000000000815260040180806020018281038252602281526020018061502d6022913960400191505060405180910390fd5b8060068190555050565b600860009054906101000a900473ffffffffffffffffffffffffffffffffffffffff1681565b60055481565b60095481565b6113fa33613e35565b1561146d576040517f08c379a00000000000000000000000000000000000000000000000000000000081526004018080602001828103825260148152602001807f636f6e7472616374206e6f7420616c6c6f77656400000000000000000000000081525060200191505060405180910390fd5b3273ffffffffffffffffffffffffffffffffffffffff163373ffffffffffffffffffffffffffffffffffffffff161461150e576040517f08c379a000000000000000000000000000000000000000000000000000000000815260040180806020018281038252601a8152602001807f70726f787920636f6e7472616374206e6f7420616c6c6f77656400000000000081525060200191505060405180910390fd5b60006001600083815260200190815260200160002060010154141561159b576040517f08c379a00000000000000000000000000000000000000000000000000000000081526004018080602001828103825260158152602001807f526f756e6420686173206e6f742073746172746564000000000000000000000081525060200191505060405180910390fd5b60016000828152602001908152602001600020600301544311611626576040517f08c379a00000000000000000000000000000000000000000000000000000000081526004018080602001828103825260138152602001807f526f756e6420686173206e6f7420656e6465640000000000000000000000000081525060200191505060405180910390fd5b6002600082815260200190815260200160002060003373ffffffffffffffffffffffffffffffffffffffff1673ffffffffffffffffffffffffffffffffffffffff16815260200190815260200160002060020160009054906101000a900460ff16156116fa576040517f08c379a000000000000000000000000000000000000000000000000000000000815260040180806020018281038252600f8152602001807f5265776172647320636c61696d6564000000000000000000000000000000000081525060200191505060405180910390fd5b600060016000838152602001908152602001600020600b0160009054906101000a900460ff16156118dd5761172f823361333e565b6117a1576040517f08c379a00000000000000000000000000000000000000000000000000000000081526004018080602001828103825260168152602001807f4e6f7420656c696769626c6520666f7220636c61696d0000000000000000000081525060200191505060405180910390fd5b6117a9614f9b565b600160008481526020019081526020016000206040518061018001604052908160008201548152602001600182015481526020016002820154815260200160038201548152602001600482015481526020016005820154815260200160068201548152602001600782015481526020016008820154815260200160098201548152602001600a8201548152602001600b820160009054906101000a900460ff16151515158152505090506118d58161012001516118c78361014001516002600088815260200190815260200160002060003373ffffffffffffffffffffffffffffffffffffffff1673ffffffffffffffffffffffffffffffffffffffff16815260200190815260200160002060010154613f5890919063ffffffff16565b613fde90919063ffffffff16565b9150506119b0565b6118e7823361267b565b611959576040517f08c379a00000000000000000000000000000000000000000000000000000000081526004018080602001828103825260178152602001807f4e6f7420656c696769626c6520666f7220726566756e6400000000000000000081525060200191505060405180910390fd5b6002600083815260200190815260200160002060003373ffffffffffffffffffffffffffffffffffffffff1673ffffffffffffffffffffffffffffffffffffffff1681526020019081526020016000206001015490505b60006002600084815260200190815260200160002060003373ffffffffffffffffffffffffffffffffffffffff1673ffffffffffffffffffffffffffffffffffffffff168152602001908152602001600020905060018160020160006101000a81548160ff021916908315150217905550611a2b3383613d71565b823373ffffffffffffffffffffffffffffffffffffffff167f34fcbac0073d7c3d388e51312faf357774904998eeb8fca628b9e6f65ee1cbf7846040518082815260200191505060405180910390a3505050565b600760009054906101000a900473ffffffffffffffffffffffffffffffffffffffff1673ffffffffffffffffffffffffffffffffffffffff163373ffffffffffffffffffffffffffffffffffffffff1614611b42576040517f08c379a000000000000000000000000000000000000000000000000000000000815260040180806020018281038252600b8152602001807f61646d696e3a207775743f00000000000000000000000000000000000000000081525060200191505060405180910390fd5b611b4a611e0d565b611bbc576040517f08c379a00000000000000000000000000000000000000000000000000000000081526004018080602001828103825260148152602001807f5061757361626c653a206e6f742070617573656400000000000000000000000081525060200191505060405180910390fd5b6000601060006101000a81548160ff0219169083151502179055506000601060016101000a81548160ff021916908315150217905550611bfa614028565b7faaa520fdd7d2c83061d632fa017b0432407e798818af63ea908589fceda39ab76004546040518082815260200191505060405180910390a1565b600860009054906101000a900473ffffffffffffffffffffffffffffffffffffffff1673ffffffffffffffffffffffffffffffffffffffff163373ffffffffffffffffffffffffffffffffffffffff1614611cf8576040517f08c379a000000000000000000000000000000000000000000000000000000000815260040180806020018281038252600e8152602001807f6f70657261746f723a207775743f00000000000000000000000000000000000081525060200191505060405180910390fd5b611d00611e0d565b15611d73576040517f08c379a00000000000000000000000000000000000000000000000000000000081526004018080602001828103825260108152602001807f5061757361626c653a207061757365640000000000000000000000000000000081525060200191505060405180910390fd5b601060009054906101000a900460ff1615611dd9576040517f08c379a00000000000000000000000000000000000000000000000000000000081526004018080602001828103825260238152602001806152566023913960400191505060405180910390fd5b600160045401600481905550611df0600454614128565b6001601060006101000a81548160ff021916908315150217905550565b60008060149054906101000a900460ff16905090565b600f5481565b600760009054906101000a900473ffffffffffffffffffffffffffffffffffffffff1673ffffffffffffffffffffffffffffffffffffffff163373ffffffffffffffffffffffffffffffffffffffff1614611eec576040517f08c379a000000000000000000000000000000000000000000000000000000000815260040180806020018281038252600b8152602001807f61646d696e3a207775743f00000000000000000000000000000000000000000081525060200191505060405180910390fd5b80600e819055506004547f82480e97991520549ac4b5d0e1d97edb3bfac2666202923b6903d2a953dc7608600e546040518082815260200191505060405180910390a250565b611f3a6141d4565b73ffffffffffffffffffffffffffffffffffffffff166000809054906101000a900473ffffffffffffffffffffffffffffffffffffffff1673ffffffffffffffffffffffffffffffffffffffff1614611ffb576040517f08c379a00000000000000000000000000000000000000000000000000000000081526004018080602001828103825260208152602001807f4f776e61626c653a2063616c6c6572206973206e6f7420746865206f776e657281525060200191505060405180910390fd5b600073ffffffffffffffffffffffffffffffffffffffff168173ffffffffffffffffffffffffffffffffffffffff16141561209e576040517f08c379a00000000000000000000000000000000000000000000000000000000081526004018080602001828103825260168152602001807f43616e6e6f74206265207a65726f20616464726573730000000000000000000081525060200191505060405180910390fd5b80600760006101000a81548173ffffffffffffffffffffffffffffffffffffffff021916908373ffffffffffffffffffffffffffffffffffffffff16021790555050565b6120ea6141d4565b73ffffffffffffffffffffffffffffffffffffffff166000809054906101000a900473ffffffffffffffffffffffffffffffffffffffff1673ffffffffffffffffffffffffffffffffffffffff16146121ab576040517f08c379a00000000000000000000000000000000000000000000000000000000081526004018080602001828103825260208152602001807f4f776e61626c653a2063616c6c6572206973206e6f7420746865206f776e657281525060200191505060405180910390fd5b600073ffffffffffffffffffffffffffffffffffffffff166000809054906101000a900473ffffffffffffffffffffffffffffffffffffffff1673ffffffffffffffffffffffffffffffffffffffff167f8be0079c531659141344cd1fd0a4f28419497f9722a3daafe3b4186f6b6457e060405160405180910390a360008060006101000a81548173ffffffffffffffffffffffffffffffffffffffff021916908373ffffffffffffffffffffffffffffffffffffffff160217905550565b6002602052816000526040600020602052806000526040600020600091509150508060000160009054906101000a900460ff16908060010154908060020160009054906101000a900460ff16905083565b60045481565b600760009054906101000a900473ffffffffffffffffffffffffffffffffffffffff1673ffffffffffffffffffffffffffffffffffffffff163373ffffffffffffffffffffffffffffffffffffffff1614612384576040517f08c379a000000000000000000000000000000000000000000000000000000000815260040180806020018281038252600b8152602001807f61646d696e3a207775743f00000000000000000000000000000000000000000081525060200191505060405180910390fd5b600073ffffffffffffffffffffffffffffffffffffffff168173ffffffffffffffffffffffffffffffffffffffff161415612427576040517f08c379a00000000000000000000000000000000000000000000000000000000081526004018080602001828103825260168152602001807f43616e6e6f74206265207a65726f20616464726573730000000000000000000081525060200191505060405180910390fd5b80600a60006101000a81548173ffffffffffffffffffffffffffffffffffffffff021916908373ffffffffffffffffffffffffffffffffffffffff16021790555050565b600c5481565b600860009054906101000a900473ffffffffffffffffffffffffffffffffffffffff1673ffffffffffffffffffffffffffffffffffffffff163373ffffffffffffffffffffffffffffffffffffffff1614612534576040517f08c379a000000000000000000000000000000000000000000000000000000000815260040180806020018281038252600e8152602001807f6f70657261746f723a207775743f00000000000000000000000000000000000081525060200191505060405180910390fd5b61253c611e0d565b156125af576040517f08c379a00000000000000000000000000000000000000000000000000000000081526004018080602001828103825260108152602001807f5061757361626c653a207061757365640000000000000000000000000000000081525060200191505060405180910390fd5b601060009054906101000a900460ff1680156125d75750601060019054906101000a900460ff165b61262c576040517f08c379a000000000000000000000000000000000000000000000000000000000815260040180806020018281038252604681526020018061529c6046913960600191505060405180910390fd5b60006126366141dc565b9050612644600454826143aa565b6126536001600454038261451a565b61266160016004540361468a565b600160045401600481905550612678600454614940565b50565b6000612685614ffe565b6002600085815260200190815260200160002060008473ffffffffffffffffffffffffffffffffffffffff1673ffffffffffffffffffffffffffffffffffffffff1681526020019081526020016000206040518060600160405290816000820160009054906101000a900460ff1660018111156126fe57fe5b600181111561270957fe5b8152602001600182015481526020016002820160009054906101000a900460ff161515151581525050905061273c614f9b565b600160008681526020019081526020016000206040518061018001604052908160008201548152602001600182015481526020016002820154815260200160038201548152602001600482015481526020016005820154815260200160068201548152602001600782015481526020016008820154815260200160098201548152602001600a8201548152602001600b820160009054906101000a900460ff1615151515815250509050806101600151158015612810575061280d6006548260600151613ed090919063ffffffff16565b43115b801561282157506000826020015114155b9250505092915050565b612833611e0d565b156128a6576040517f08c379a00000000000000000000000000000000000000000000000000000000081526004018080602001828103825260108152602001807f5061757361626c653a207061757365640000000000000000000000000000000081525060200191505060405180910390fd5b6128af33613e35565b15612922576040517f08c379a00000000000000000000000000000000000000000000000000000000081526004018080602001828103825260148152602001807f636f6e7472616374206e6f7420616c6c6f77656400000000000000000000000081525060200191505060405180910390fd5b3273ffffffffffffffffffffffffffffffffffffffff163373ffffffffffffffffffffffffffffffffffffffff16146129c3576040517f08c379a000000000000000000000000000000000000000000000000000000000815260040180806020018281038252601a8152602001807f70726f787920636f6e7472616374206e6f7420616c6c6f77656400000000000081525060200191505060405180910390fd5b6129ce600454613e48565b612a40576040517f08c379a00000000000000000000000000000000000000000000000000000000081526004018080602001828103825260128152602001807f526f756e64206e6f74206265747461626c65000000000000000000000000000081525060200191505060405180910390fd5b600e54341015612a9b576040517f08c379a000000000000000000000000000000000000000000000000000000000815260040180806020018281038252602c815260200180615184602c913960400191505060405180910390fd5b600060026000600454815260200190815260200160002060003373ffffffffffffffffffffffffffffffffffffffff1673ffffffffffffffffffffffffffffffffffffffff1681526020019081526020016000206001015414612b66576040517f08c379a000000000000000000000000000000000000000000000000000000000815260040180806020018281038252601b8152602001807f43616e206f6e6c7920626574206f6e63652070657220726f756e64000000000081525060200191505060405180910390fd5b600034905060006001600060045481526020019081526020016000209050612b9b828260060154613ed090919063ffffffff16565b8160060181905550612bba828260070154613ed090919063ffffffff16565b8160070181905550600060026000600454815260200190815260200160002060003373ffffffffffffffffffffffffffffffffffffffff1673ffffffffffffffffffffffffffffffffffffffff168152602001908152602001600020905060008160000160006101000a81548160ff02191690836001811115612c3957fe5b0217905550828160010181905550600360003373ffffffffffffffffffffffffffffffffffffffff1673ffffffffffffffffffffffffffffffffffffffff16815260200190815260200160002060045490806001815401808255809150509060018203906000526020600020016000909192909190915055506004543373ffffffffffffffffffffffffffffffffffffffff167f438122d8cff518d18388099a5181f0d17a12b4f1b55faedf6e4a6acee0060c12856040518082815260200191505060405180910390a3505050565b600760009054906101000a900473ffffffffffffffffffffffffffffffffffffffff1673ffffffffffffffffffffffffffffffffffffffff163373ffffffffffffffffffffffffffffffffffffffff161480612db15750600860009054906101000a900473ffffffffffffffffffffffffffffffffffffffff1673ffffffffffffffffffffffffffffffffffffffff163373ffffffffffffffffffffffffffffffffffffffff16145b612e23576040517f08c379a00000000000000000000000000000000000000000000000000000000081526004018080602001828103825260168152602001807f61646d696e207c206f70657261746f723a207775743f0000000000000000000081525060200191505060405180910390fd5b612e2b611e0d565b15612e9e576040517f08c379a00000000000000000000000000000000000000000000000000000000081526004018080602001828103825260108152602001807f5061757361626c653a207061757365640000000000000000000000000000000081525060200191505060405180910390fd5b612ea6614a96565b7f68b095021b1f40fe513109f513c66692f0b3219aee674a69f4efc57badb8201d6004546040518082815260200191505060405180910390a1565b600160205280600052604060002060009150905080600001549080600101549080600201549080600301549080600401549080600501549080600601549080600701549080600801549080600901549080600a01549080600b0160009054906101000a900460ff1690508c565b60008060009054906101000a900473ffffffffffffffffffffffffffffffffffffffff16905090565b606060008083905084600360008873ffffffffffffffffffffffffffffffffffffffff1673ffffffffffffffffffffffffffffffffffffffff16815260200190815260200160002080549050038111156130135784600360008873ffffffffffffffffffffffffffffffffffffffff1673ffffffffffffffffffffffffffffffffffffffff168152602001908152602001600020805490500390505b6060816040519080825280602002602001820160405280156130445781602001602082028038833980820191505090505b50905060008090505b828110156130d157600360008973ffffffffffffffffffffffffffffffffffffffff1673ffffffffffffffffffffffffffffffffffffffff168152602001908152602001600020818801815481106130a157fe5b90600052602060002001548282815181106130b857fe5b602002602001018181525050808060010191505061304d565b5080828701935093505050935093915050565b60065481565b600760009054906101000a900473ffffffffffffffffffffffffffffffffffffffff1673ffffffffffffffffffffffffffffffffffffffff163373ffffffffffffffffffffffffffffffffffffffff16146131ad576040517f08c379a000000000000000000000000000000000000000000000000000000000815260040180806020018281038252600b8152602001807f61646d696e3a207775743f00000000000000000000000000000000000000000081525060200191505060405180910390fd5b6064811115613207576040517f08c379a00000000000000000000000000000000000000000000000000000000081526004018080602001828103825260238152602001806153056023913960400191505060405180910390fd5b80600c81905550613222816064614b9890919063ffffffff16565b600d819055506004547f023010bc68e7f4c0be9887f513c570c7a0f5f511b9716abccd42bf3b8943532b600c54600d54604051808381526020018281526020019250505060405180910390a250565b600760009054906101000a900473ffffffffffffffffffffffffffffffffffffffff1673ffffffffffffffffffffffffffffffffffffffff163373ffffffffffffffffffffffffffffffffffffffff1614613334576040517f08c379a000000000000000000000000000000000000000000000000000000000815260040180806020018281038252600b8152602001807f61646d696e3a207775743f00000000000000000000000000000000000000000081525060200191505060405180910390fd5b8060058190555050565b6000613348614ffe565b6002600085815260200190815260200160002060008473ffffffffffffffffffffffffffffffffffffffff1673ffffffffffffffffffffffffffffffffffffffff1681526020019081526020016000206040518060600160405290816000820160009054906101000a900460ff1660018111156133c157fe5b60018111156133cc57fe5b8152602001600182015481526020016002820160009054906101000a900460ff16151515158152505090506133ff614f9b565b600160008681526020019081526020016000206040518061018001604052908160008201548152602001600182015481526020016002820154815260200160038201548152602001600482015481526020016005820154815260200160068201548152602001600782015481526020016008820154815260200160098201548152602001600a8201548152602001600b820160009054906101000a900460ff16151515158152505090508060a00151816080015114156134c45760009250505061353f565b806101600151801561353a575080608001518160a001511380156135025750600060018111156134f057fe5b8260000151600181111561350057fe5b145b80613539575080608001518160a00151128015613538575060018081111561352657fe5b8260000151600181111561353657fe5b145b5b5b925050505b92915050565b606481565b600760009054906101000a900473ffffffffffffffffffffffffffffffffffffffff1673ffffffffffffffffffffffffffffffffffffffff163373ffffffffffffffffffffffffffffffffffffffff161461360d576040517f08c379a000000000000000000000000000000000000000000000000000000000815260040180806020018281038252600b8152602001807f61646d696e3a207775743f00000000000000000000000000000000000000000081525060200191505060405180910390fd5b600073ffffffffffffffffffffffffffffffffffffffff168173ffffffffffffffffffffffffffffffffffffffff1614156136b0576040517f08c379a00000000000000000000000000000000000000000000000000000000081526004018080602001828103825260168152602001807f43616e6e6f74206265207a65726f20616464726573730000000000000000000081525060200191505060405180910390fd5b80600860006101000a81548173ffffffffffffffffffffffffffffffffffffffff021916908373ffffffffffffffffffffffffffffffffffffffff16021790555050565b600760009054906101000a900473ffffffffffffffffffffffffffffffffffffffff1673ffffffffffffffffffffffffffffffffffffffff163373ffffffffffffffffffffffffffffffffffffffff16146137b7576040517f08c379a000000000000000000000000000000000000000000000000000000000815260040180806020018281038252600b8152602001807f61646d696e3a207775743f00000000000000000000000000000000000000000081525060200191505060405180910390fd5b80600f8190555050565b600760009054906101000a900473ffffffffffffffffffffffffffffffffffffffff1673ffffffffffffffffffffffffffffffffffffffff163373ffffffffffffffffffffffffffffffffffffffff1614613884576040517f08c379a000000000000000000000000000000000000000000000000000000000815260040180806020018281038252600b8152602001807f61646d696e3a207775743f00000000000000000000000000000000000000000081525060200191505060405180910390fd5b60648111156138de576040517f08c379a00000000000000000000000000000000000000000000000000000000081526004018080602001828103825260258152602001806153496025913960400191505060405180910390fd5b6138f2816064614b9890919063ffffffff16565b600c8190555080600d819055506004547f023010bc68e7f4c0be9887f513c570c7a0f5f511b9716abccd42bf3b8943532b600c54600d54604051808381526020018281526020019250505060405180910390a250565b600860009054906101000a900473ffffffffffffffffffffffffffffffffffffffff1673ffffffffffffffffffffffffffffffffffffffff163373ffffffffffffffffffffffffffffffffffffffff1614613a0b576040517f08c379a000000000000000000000000000000000000000000000000000000000815260040180806020018281038252600e8152602001807f6f70657261746f723a207775743f00000000000000000000000000000000000081525060200191505060405180910390fd5b613a13611e0d565b15613a86576040517f08c379a00000000000000000000000000000000000000000000000000000000081526004018080602001828103825260108152602001807f5061757361626c653a207061757365640000000000000000000000000000000081525060200191505060405180910390fd5b601060009054906101000a900460ff16613aeb576040517f08c379a000000000000000000000000000000000000000000000000000000000815260040180806020018281038252603181526020018061507a6031913960400191505060405180910390fd5b601060019054906101000a900460ff1615613b51576040517f08c379a00000000000000000000000000000000000000000000000000000000081526004018080602001828103825260228152602001806151626022913960400191505060405180910390fd5b613b7e60065460016000600454815260200190815260200160002060020154613ed090919063ffffffff16565b431115613bd6576040517f08c379a00000000000000000000000000000000000000000000000000000000081526004018080602001828103825260278152602001806151b06027913960400191505060405180910390fd5b6000613be06141dc565b9050613bee600454826143aa565b600160045401600481905550613c05600454614128565b6001601060016101000a81548160ff02191690831515021790555050565b60036020528160005260406000208181548110613c3c57fe5b90600052602060002001600091509150505481565b600d5481565b600b5481565b613c656141d4565b73ffffffffffffffffffffffffffffffffffffffff166000809054906101000a900473ffffffffffffffffffffffffffffffffffffffff1673ffffffffffffffffffffffffffffffffffffffff1614613d26576040517f08c379a00000000000000000000000000000000000000000000000000000000081526004018080602001828103825260208152602001807f4f776e61626c653a2063616c6c6572206973206e6f7420746865206f776e657281525060200191505060405180910390fd5b613d2f81614be2565b50565b601060009054906101000a900460ff1681565b600e5481565b600760009054906101000a900473ffffffffffffffffffffffffffffffffffffffff1681565b60008273ffffffffffffffffffffffffffffffffffffffff168260405180600001905060006040518083038185875af1925050503d8060008114613dd1576040519150601f19603f3d011682016040523d82523d6000602084013e613dd6565b606091505b5050905080613e30576040517f08c379a00000000000000000000000000000000000000000000000000000000081526004018080602001828103825260238152602001806152e26023913960400191505060405180910390fd5b505050565b600080823b905060008111915050919050565b600080600160008481526020019081526020016000206001015414158015613e8757506000600160008481526020019081526020016000206002015414155b8015613ea85750600160008381526020019081526020016000206001015443115b8015613ec95750600160008381526020019081526020016000206002015443105b9050919050565b600080828401905083811015613f4e576040517f08c379a000000000000000000000000000000000000000000000000000000000815260040180806020018281038252601b8152602001807f536166654d6174683a206164646974696f6e206f766572666c6f77000000000081525060200191505060405180910390fd5b8091505092915050565b600080831415613f6b5760009050613fd8565b6000828402905082848281613f7c57fe5b0414613fd3576040517f08c379a000000000000000000000000000000000000000000000000000000000815260040180806020018281038252602181526020018061520c6021913960400191505060405180910390fd5b809150505b92915050565b600061402083836040518060400160405280601a81526020017f536166654d6174683a206469766973696f6e206279207a65726f000000000000815250614d26565b905092915050565b614030611e0d565b6140a2576040517f08c379a00000000000000000000000000000000000000000000000000000000081526004018080602001828103825260148152602001807f5061757361626c653a206e6f742070617573656400000000000000000000000081525060200191505060405180910390fd5b60008060146101000a81548160ff0219169083151502179055507f5db9ee0a495bf2e6ff9c91a7834c1ba4fdd244a5e8aa4e537bd38aeae4b073aa6140e56141d4565b604051808273ffffffffffffffffffffffffffffffffffffffff1673ffffffffffffffffffffffffffffffffffffffff16815260200191505060405180910390a1565b600060016000838152602001908152602001600020905043816001018190555061415d60055443613ed090919063ffffffff16565b816002018190555061417d60026005540243613ed090919063ffffffff16565b816003018190555081816000018190555060008160060181905550817f0e5543feb86a4cd302f2b88b26c42be2d1673013a34e1f98bd6d524dd3b4ab41436040518082815260200191505060405180910390a25050565b600033905090565b6000806141f4600f5442613ed090919063ffffffff16565b90506000806000600a60009054906101000a900473ffffffffffffffffffffffffffffffffffffffff1673ffffffffffffffffffffffffffffffffffffffff1663feaf968c6040518163ffffffff1660e01b815260040160a06040518083038186803b15801561426357600080fd5b505afa158015614277573d6000803e3d6000fd5b505050506040513d60a081101561428d57600080fd5b810190808051906020019092919080519060200190929190805190602001909291908051906020019092919080519060200190929190505050509350509250925083811115614327576040517f08c379a000000000000000000000000000000000000000000000000000000000815260040180806020018281038252602e81526020018061539f602e913960400191505060405180910390fd5b600b548369ffffffffffffffffffff161161438d576040517f08c379a000000000000000000000000000000000000000000000000000000000815260040180806020018281038252603d8152602001806150ff603d913960400191505060405180910390fd5b8269ffffffffffffffffffff16600b819055508194505050505090565b60006001600084815260200190815260200160002060010154141561441a576040517f08c379a000000000000000000000000000000000000000000000000000000000815260040180806020018281038252602b81526020018061504f602b913960400191505060405180910390fd5b6001600083815260200190815260200160002060020154431015614489576040517f08c379a00000000000000000000000000000000000000000000000000000000081526004018080602001828103825260238152602001806152796023913960400191505060405180910390fd5b6144b46006546001600085815260200190815260200160002060020154613ed090919063ffffffff16565b43111561450c576040517f08c379a00000000000000000000000000000000000000000000000000000000081526004018080602001828103825260278152602001806151b06027913960400191505060405180910390fd5b6145168282614dec565b5050565b60006001600084815260200190815260200160002060020154141561458a576040517f08c379a000000000000000000000000000000000000000000000000000000000815260040180806020018281038252602981526020018061522d6029913960400191505060405180910390fd5b60016000838152602001908152602001600020600301544310156145f9576040517f08c379a00000000000000000000000000000000000000000000000000000000081526004018080602001828103825260218152602001806153286021913960400191505060405180910390fd5b6146246006546001600085815260200190815260200160002060030154613ed090919063ffffffff16565b43111561467c576040517f08c379a000000000000000000000000000000000000000000000000000000000815260040180806020018281038252602681526020018061513c6026913960400191505060405180910390fd5b6146868282614e55565b5050565b60646146a3600d54600c54613ed090919063ffffffff16565b146146f9576040517f08c379a00000000000000000000000000000000000000000000000000000000081526004018080602001828103825260358152602001806151d76035913960400191505060405180910390fd5b600060016000838152602001908152602001600020600901541480156147355750600060016000838152602001908152602001600020600a0154145b6147a7576040517f08c379a00000000000000000000000000000000000000000000000000000000081526004018080602001828103825260128152602001807f526577617264732063616c63756c61746564000000000000000000000000000081525060200191505060405180910390fd5b6000600160008381526020019081526020016000209050600080600083600401548460050154131561483b578360070154925061480660646147f8600c548760060154613f5890919063ffffffff16565b613fde90919063ffffffff16565b91506148346064614826600d548760060154613f5890919063ffffffff16565b613fde90919063ffffffff16565b90506148c4565b8360040154846005015412156148b3578360080154925061487e6064614870600c548760060154613f5890919063ffffffff16565b613fde90919063ffffffff16565b91506148ac606461489e600d548760060154613f5890919063ffffffff16565b613fde90919063ffffffff16565b90506148c3565b6000925060009150836006015490505b5b8284600901819055508184600a01819055506148eb81600954613ed090919063ffffffff16565b600981905550847f6dfdfcb09c8804d0058826cd2539f1acfbe3cb887c9be03d928035bce0f1a58d84848460405180848152602001838152602001828152602001935050505060405180910390a25050505050565b601060009054906101000a900460ff166149a5576040517f08c379a000000000000000000000000000000000000000000000000000000000815260040180806020018281038252603181526020018061507a6031913960400191505060405180910390fd5b600060016000600284038152602001908152602001600020600301541415614a18576040517f08c379a000000000000000000000000000000000000000000000000000000000815260040180806020018281038252602e8152602001806150d1602e913960400191505060405180910390fd5b6001600060028303815260200190815260200160002060030154431015614a8a576040517f08c379a000000000000000000000000000000000000000000000000000000000815260040180806020018281038252603181526020018061536e6031913960400191505060405180910390fd5b614a9381614128565b50565b614a9e611e0d565b15614b11576040517f08c379a00000000000000000000000000000000000000000000000000000000081526004018080602001828103825260108152602001807f5061757361626c653a207061757365640000000000000000000000000000000081525060200191505060405180910390fd5b6001600060146101000a81548160ff0219169083151502179055507f62e78cea01bee320cd4e420270b5ea74000d11b0c9f74754ebdbfc544b05a258614b556141d4565b604051808273ffffffffffffffffffffffffffffffffffffffff1673ffffffffffffffffffffffffffffffffffffffff16815260200191505060405180910390a1565b6000614bda83836040518060400160405280601e81526020017f536166654d6174683a207375627472616374696f6e206f766572666c6f770000815250614edb565b905092915050565b600073ffffffffffffffffffffffffffffffffffffffff168173ffffffffffffffffffffffffffffffffffffffff161415614c68576040517f08c379a00000000000000000000000000000000000000000000000000000000081526004018080602001828103825260268152602001806150ab6026913960400191505060405180910390fd5b8073ffffffffffffffffffffffffffffffffffffffff166000809054906101000a900473ffffffffffffffffffffffffffffffffffffffff1673ffffffffffffffffffffffffffffffffffffffff167f8be0079c531659141344cd1fd0a4f28419497f9722a3daafe3b4186f6b6457e060405160405180910390a3806000806101000a81548173ffffffffffffffffffffffffffffffffffffffff021916908373ffffffffffffffffffffffffffffffffffffffff16021790555050565b60008083118290614dd2576040517f08c379a00000000000000000000000000000000000000000000000000000000081526004018080602001828103825283818151815260200191508051906020019080838360005b83811015614d97578082015181840152602081019050614d7c565b50505050905090810190601f168015614dc45780820380516001836020036101000a031916815260200191505b509250505060405180910390fd5b506000838581614dde57fe5b049050809150509392505050565b6000600160008481526020019081526020016000209050818160040181905550827f482e76a65b448a42deef26e99e58fb20c85e26f075defff8df6aa80459b39006438360040154604051808381526020018281526020019250505060405180910390a2505050565b6000600160008481526020019081526020016000209050818160050181905550600181600b0160006101000a81548160ff021916908315150217905550827fb6ff1fe915db84788cbbbc017f0d2bef9485fad9fd0bd8ce9340fde0d8410dd8438360050154604051808381526020018281526020019250505060405180910390a2505050565b6000838311158290614f88576040517f08c379a00000000000000000000000000000000000000000000000000000000081526004018080602001828103825283818151815260200191508051906020019080838360005b83811015614f4d578082015181840152602081019050614f32565b50505050905090810190601f168015614f7a5780820380516001836020036101000a031916815260200191505b509250505060405180910390fd5b5060008385039050809150509392505050565b60405180610180016040528060008152602001600081526020016000815260200160008152602001600081526020016000815260200160008152602001600081526020016000815260200160008152602001600081526020016000151581525090565b60405180606001604052806000600181111561501657fe5b815260200160008152602001600015158152509056fe43616e6e6f74206265206d6f7265207468616e20696e74657276616c426c6f636b7343616e206f6e6c79206c6f636b20726f756e6420616674657220726f756e6420686173207374617274656443616e206f6e6c792072756e2061667465722067656e657369735374617274526f756e64206973207472696767657265644f776e61626c653a206e6577206f776e657220697320746865207a65726f206164647265737343616e206f6e6c7920737461727420726f756e6420616674657220726f756e64206e2d322068617320656e6465644f7261636c652075706461746520726f756e644964206d757374206265206c6172676572207468616e206f7261636c654c6174657374526f756e64496443616e206f6e6c7920656e6420726f756e642077697468696e20627566666572426c6f636b7343616e206f6e6c792072756e2067656e657369734c6f636b526f756e64206f6e636542657420616d6f756e74206d7573742062652067726561746572207468616e206d696e426574416d6f756e7443616e206f6e6c79206c6f636b20726f756e642077697468696e20627566666572426c6f636b737265776172645261746520616e6420747265617375727952617465206d7573742061646420757020746f20544f54414c5f52415445536166654d6174683a206d756c7469706c69636174696f6e206f766572666c6f7743616e206f6e6c7920656e6420726f756e6420616674657220726f756e6420686173206c6f636b656443616e206f6e6c792072756e2067656e657369735374617274526f756e64206f6e636543616e206f6e6c79206c6f636b20726f756e64206166746572206c6f636b426c6f636b43616e206f6e6c792072756e2061667465722067656e657369735374617274526f756e6420616e642067656e657369734c6f636b526f756e64206973207472696767657265645472616e7366657248656c7065723a20424e425f5452414e534645525f4641494c4544726577617264526174652063616e6e6f74206265206d6f7265207468616e203130302543616e206f6e6c7920656e6420726f756e6420616674657220656e64426c6f636b7472656173757279526174652063616e6e6f74206265206d6f7265207468616e203130302543616e206f6e6c79207374617274206e657720726f756e6420616674657220726f756e64206e2d3220656e64426c6f636b4f7261636c6520757064617465206578636565646564206d61782074696d657374616d7020616c6c6f77616e6365a265627a7a723158205f0e7dcbec16300c3af5c621b270e55c443ad08a98f032319c42aadd5a2a50cd64736f6c63430005100032",
  "source": "pragma solidity >=0.4.0;\r\n\r\nimport \"./interfaces/AggregatorV3Interface.sol\";\r\nimport \"./math/SafeMath.sol\";\r\nimport \"./access/Ownable.sol\";\r\nimport \"./security/Pausable.sol\";\r\n\r\ncontract BnbPricePrediction is Ownable, Pausable {\r\n    using SafeMath for uint256;\r\n\r\n    struct Round {\r\n        uint256 epoch;\r\n        uint256 startBlock;\r\n        uint256 lockBlock;\r\n        uint256 endBlock;\r\n        int256 lockPrice;\r\n        int256 closePrice;\r\n        uint256 totalAmount;\r\n        uint256 bullAmount;\r\n        uint256 bearAmount;\r\n        uint256 rewardBaseCalAmount;\r\n        uint256 rewardAmount;\r\n        bool oracleCalled;\r\n    }\r\n\r\n    enum Position {Bull, Bear}\r\n\r\n    struct BetInfo {\r\n        Position position;\r\n        uint256 amount;\r\n        bool claimed; // default false\r\n    }\r\n\r\n    mapping(uint256 => Round) public rounds;\r\n    mapping(uint256 => mapping(address => BetInfo)) public ledger;\r\n    mapping(address => uint256[]) public userRounds;\r\n    uint256 public currentEpoch;\r\n    uint256 public intervalBlocks;\r\n    uint256 public bufferBlocks;\r\n    address public adminAddress;\r\n    address public operatorAddress;\r\n    uint256 public treasuryAmount;\r\n    AggregatorV3Interface internal oracle;\r\n    uint256 public oracleLatestRoundId;\r\n\r\n    uint256 public constant TOTAL_RATE = 100; // 100%\r\n    uint256 public rewardRate = 90; // 90%\r\n    uint256 public treasuryRate = 10; // 10%\r\n    uint256 public minBetAmount;\r\n    uint256 public oracleUpdateAllowance; // seconds\r\n\r\n    bool public genesisStartOnce = false;\r\n    bool public genesisLockOnce = false;\r\n\r\n    event StartRound(uint256 indexed epoch, uint256 blockNumber);\r\n    event LockRound(uint256 indexed epoch, uint256 blockNumber, int256 price);\r\n    event EndRound(uint256 indexed epoch, uint256 blockNumber, int256 price);\r\n    event BetBull(address indexed sender, uint256 indexed currentEpoch, uint256 amount);\r\n    event BetBear(address indexed sender, uint256 indexed currentEpoch, uint256 amount);\r\n    event Claim(address indexed sender, uint256 indexed currentEpoch, uint256 amount);\r\n    event ClaimTreasury(uint256 amount);\r\n    event RatesUpdated(uint256 indexed epoch, uint256 rewardRate, uint256 treasuryRate);\r\n    event MinBetAmountUpdated(uint256 indexed epoch, uint256 minBetAmount);\r\n    event RewardsCalculated(\r\n        uint256 indexed epoch,\r\n        uint256 rewardBaseCalAmount,\r\n        uint256 rewardAmount,\r\n        uint256 treasuryAmount\r\n    );\r\n    event Pause(uint256 epoch);\r\n    event Unpause(uint256 epoch);\r\n\r\n    constructor(\r\n        AggregatorV3Interface _oracle,\r\n        address _adminAddress,\r\n        address _operatorAddress,\r\n        uint256 _intervalBlocks,\r\n        uint256 _bufferBlocks,\r\n        uint256 _minBetAmount,\r\n        uint256 _oracleUpdateAllowance\r\n    ) public {\r\n        oracle = _oracle;\r\n        adminAddress = _adminAddress;\r\n        operatorAddress = _operatorAddress;\r\n        intervalBlocks = _intervalBlocks;\r\n        bufferBlocks = _bufferBlocks;\r\n        minBetAmount = _minBetAmount;\r\n        oracleUpdateAllowance = _oracleUpdateAllowance;\r\n    }\r\n\r\n    modifier onlyAdmin() {\r\n        require(msg.sender == adminAddress, \"admin: wut?\");\r\n        _;\r\n    }\r\n\r\n    modifier onlyOperator() {\r\n        require(msg.sender == operatorAddress, \"operator: wut?\");\r\n        _;\r\n    }\r\n\r\n    modifier onlyAdminOrOperator() {\r\n        require(msg.sender == adminAddress || msg.sender == operatorAddress, \"admin | operator: wut?\");\r\n        _;\r\n    }\r\n\r\n    modifier notContract() {\r\n        require(!_isContract(msg.sender), \"contract not allowed\");\r\n        require(msg.sender == tx.origin, \"proxy contract not allowed\");\r\n        _;\r\n    }\r\n\r\n    /**\r\n     * @dev set admin address\r\n     * callable by owner\r\n     */\r\n    function setAdmin(address _adminAddress) external onlyOwner {\r\n        require(_adminAddress != address(0), \"Cannot be zero address\");\r\n        adminAddress = _adminAddress;\r\n    }\r\n\r\n    /**\r\n     * @dev set operator address\r\n     * callable by admin\r\n     */\r\n    function setOperator(address _operatorAddress) external onlyAdmin {\r\n        require(_operatorAddress != address(0), \"Cannot be zero address\");\r\n        operatorAddress = _operatorAddress;\r\n    }\r\n\r\n    /**\r\n     * @dev set interval blocks\r\n     * callable by admin\r\n     */\r\n    function setIntervalBlocks(uint256 _intervalBlocks) external onlyAdmin {\r\n        intervalBlocks = _intervalBlocks;\r\n    }\r\n\r\n    /**\r\n     * @dev set buffer blocks\r\n     * callable by admin\r\n     */\r\n    function setBufferBlocks(uint256 _bufferBlocks) external onlyAdmin {\r\n        require(_bufferBlocks <= intervalBlocks, \"Cannot be more than intervalBlocks\");\r\n        bufferBlocks = _bufferBlocks;\r\n    }\r\n\r\n    /**\r\n     * @dev set Oracle address\r\n     * callable by admin\r\n     */\r\n    function setOracle(address _oracle) external onlyAdmin {\r\n        require(_oracle != address(0), \"Cannot be zero address\");\r\n        oracle = AggregatorV3Interface(_oracle);\r\n    }\r\n\r\n    /**\r\n     * @dev set oracle update allowance\r\n     * callable by admin\r\n     */\r\n    function setOracleUpdateAllowance(uint256 _oracleUpdateAllowance) external onlyAdmin {\r\n        oracleUpdateAllowance = _oracleUpdateAllowance;\r\n    }\r\n\r\n    /**\r\n     * @dev set reward rate\r\n     * callable by admin\r\n     */\r\n    function setRewardRate(uint256 _rewardRate) external onlyAdmin {\r\n        require(_rewardRate <= TOTAL_RATE, \"rewardRate cannot be more than 100%\");\r\n        rewardRate = _rewardRate;\r\n        treasuryRate = TOTAL_RATE.sub(_rewardRate);\r\n\r\n        emit RatesUpdated(currentEpoch, rewardRate, treasuryRate);\r\n    }\r\n\r\n    /**\r\n     * @dev set treasury rate\r\n     * callable by admin\r\n     */\r\n    function setTreasuryRate(uint256 _treasuryRate) external onlyAdmin {\r\n        require(_treasuryRate <= TOTAL_RATE, \"treasuryRate cannot be more than 100%\");\r\n        rewardRate = TOTAL_RATE.sub(_treasuryRate);\r\n        treasuryRate = _treasuryRate;\r\n\r\n        emit RatesUpdated(currentEpoch, rewardRate, treasuryRate);\r\n    }\r\n\r\n    /**\r\n     * @dev set minBetAmount\r\n     * callable by admin\r\n     */\r\n    function setMinBetAmount(uint256 _minBetAmount) external onlyAdmin {\r\n        minBetAmount = _minBetAmount;\r\n\r\n        emit MinBetAmountUpdated(currentEpoch, minBetAmount);\r\n    }\r\n\r\n    /**\r\n     * @dev Start genesis round\r\n     */\r\n    function genesisStartRound() external onlyOperator whenNotPaused {\r\n        require(!genesisStartOnce, \"Can only run genesisStartRound once\");\r\n\r\n        currentEpoch = currentEpoch + 1;\r\n        _startRound(currentEpoch);\r\n        genesisStartOnce = true;\r\n    }\r\n\r\n    /**\r\n     * @dev Lock genesis round\r\n     */\r\n    function genesisLockRound() external onlyOperator whenNotPaused {\r\n        require(genesisStartOnce, \"Can only run after genesisStartRound is triggered\");\r\n        require(!genesisLockOnce, \"Can only run genesisLockRound once\");\r\n        require(\r\n            block.number <= rounds[currentEpoch].lockBlock.add(bufferBlocks),\r\n            \"Can only lock round within bufferBlocks\"\r\n        );\r\n\r\n        int256 currentPrice = _getPriceFromOracle();\r\n        _safeLockRound(currentEpoch, currentPrice);\r\n\r\n        currentEpoch = currentEpoch + 1;\r\n        _startRound(currentEpoch);\r\n        genesisLockOnce = true;\r\n    }\r\n\r\n    /**\r\n     * @dev Start the next round n, lock price for round n-1, end round n-2\r\n     */\r\n    function executeRound() external onlyOperator whenNotPaused {\r\n        require(\r\n            genesisStartOnce && genesisLockOnce,\r\n            \"Can only run after genesisStartRound and genesisLockRound is triggered\"\r\n        );\r\n\r\n        int256 currentPrice = _getPriceFromOracle();\r\n        // CurrentEpoch refers to previous round (n-1)\r\n        _safeLockRound(currentEpoch, currentPrice);\r\n        _safeEndRound(currentEpoch - 1, currentPrice);\r\n        _calculateRewards(currentEpoch - 1);\r\n\r\n        // Increment currentEpoch to current round (n)\r\n        currentEpoch = currentEpoch + 1;\r\n        _safeStartRound(currentEpoch);\r\n    }\r\n\r\n    /**\r\n     * @dev Bet bear position\r\n     */\r\n    function betBear() external payable whenNotPaused notContract {\r\n        require(_bettable(currentEpoch), \"Round not bettable\");\r\n        require(msg.value >= minBetAmount, \"Bet amount must be greater than minBetAmount\");\r\n        require(ledger[currentEpoch][msg.sender].amount == 0, \"Can only bet once per round\");\r\n\r\n        // Update round data\r\n        uint256 amount = msg.value;\r\n        Round storage round = rounds[currentEpoch];\r\n        round.totalAmount = round.totalAmount.add(amount);\r\n        round.bearAmount = round.bearAmount.add(amount);\r\n\r\n        // Update user data\r\n        BetInfo storage betInfo = ledger[currentEpoch][msg.sender];\r\n        betInfo.position = Position.Bear;\r\n        betInfo.amount = amount;\r\n        userRounds[msg.sender].push(currentEpoch);\r\n\r\n        emit BetBear(msg.sender, currentEpoch, amount);\r\n    }\r\n\r\n    /**\r\n     * @dev Bet bull position\r\n     */\r\n    function betBull() external payable whenNotPaused notContract {\r\n        require(_bettable(currentEpoch), \"Round not bettable\");\r\n        require(msg.value >= minBetAmount, \"Bet amount must be greater than minBetAmount\");\r\n        require(ledger[currentEpoch][msg.sender].amount == 0, \"Can only bet once per round\");\r\n\r\n        // Update round data\r\n        uint256 amount = msg.value;\r\n        Round storage round = rounds[currentEpoch];\r\n        round.totalAmount = round.totalAmount.add(amount);\r\n        round.bullAmount = round.bullAmount.add(amount);\r\n\r\n        // Update user data\r\n        BetInfo storage betInfo = ledger[currentEpoch][msg.sender];\r\n        betInfo.position = Position.Bull;\r\n        betInfo.amount = amount;\r\n        userRounds[msg.sender].push(currentEpoch);\r\n\r\n        emit BetBull(msg.sender, currentEpoch, amount);\r\n    }\r\n\r\n    /**\r\n     * @dev Claim reward\r\n     */\r\n    function claim(uint256 epoch) external notContract {\r\n        require(rounds[epoch].startBlock != 0, \"Round has not started\");\r\n        require(block.number > rounds[epoch].endBlock, \"Round has not ended\");\r\n        require(!ledger[epoch][msg.sender].claimed, \"Rewards claimed\");\r\n\r\n        uint256 reward;\r\n        // Round valid, claim rewards\r\n        if (rounds[epoch].oracleCalled) {\r\n            require(claimable(epoch, msg.sender), \"Not eligible for claim\");\r\n            Round memory round = rounds[epoch];\r\n            reward = ledger[epoch][msg.sender].amount.mul(round.rewardAmount).div(round.rewardBaseCalAmount);\r\n        }\r\n        // Round invalid, refund bet amount\r\n        else {\r\n            require(refundable(epoch, msg.sender), \"Not eligible for refund\");\r\n            reward = ledger[epoch][msg.sender].amount;\r\n        }\r\n\r\n        BetInfo storage betInfo = ledger[epoch][msg.sender];\r\n        betInfo.claimed = true;\r\n        _safeTransferBNB(address(msg.sender), reward);\r\n\r\n        emit Claim(msg.sender, epoch, reward);\r\n    }\r\n\r\n    /**\r\n     * @dev Claim all rewards in treasury\r\n     * callable by admin\r\n     */\r\n    function claimTreasury() external onlyAdmin {\r\n        uint256 currentTreasuryAmount = treasuryAmount;\r\n        treasuryAmount = 0;\r\n        _safeTransferBNB(adminAddress, currentTreasuryAmount);\r\n\r\n        emit ClaimTreasury(currentTreasuryAmount);\r\n    }\r\n\r\n    /**\r\n     * @dev Return round epochs that a user has participated\r\n     */\r\n    function getUserRounds(\r\n        address user,\r\n        uint256 cursor,\r\n        uint256 size\r\n    ) external view returns (uint256[] memory, uint256) {\r\n        uint256 length = size;\r\n        if (length > userRounds[user].length - cursor) {\r\n            length = userRounds[user].length - cursor;\r\n        }\r\n\r\n        uint256[] memory values = new uint256[](length);\r\n        for (uint256 i = 0; i < length; i++) {\r\n            values[i] = userRounds[user][cursor + i];\r\n        }\r\n\r\n        return (values, cursor + length);\r\n    }\r\n\r\n    /**\r\n     * @dev called by the admin to pause, triggers stopped state\r\n     */\r\n    function pause() public onlyAdminOrOperator whenNotPaused {\r\n        _pause();\r\n\r\n        emit Pause(currentEpoch);\r\n    }\r\n\r\n    /**\r\n     * @dev called by the admin to unpause, returns to normal state\r\n     * Reset genesis state. Once paused, the rounds would need to be kickstarted by genesis\r\n     */\r\n    function unpause() public onlyAdmin whenPaused {\r\n        genesisStartOnce = false;\r\n        genesisLockOnce = false;\r\n        _unpause();\r\n\r\n        emit Unpause(currentEpoch);\r\n    }\r\n\r\n    /**\r\n     * @dev Get the claimable stats of specific epoch and user account\r\n     */\r\n    function claimable(uint256 epoch, address user) public view returns (bool) {\r\n        BetInfo memory betInfo = ledger[epoch][user];\r\n        Round memory round = rounds[epoch];\r\n        if (round.lockPrice == round.closePrice) {\r\n            return false;\r\n        }\r\n        return\r\n            round.oracleCalled &&\r\n            ((round.closePrice > round.lockPrice && betInfo.position == Position.Bull) ||\r\n                (round.closePrice < round.lockPrice && betInfo.position == Position.Bear));\r\n    }\r\n\r\n    /**\r\n     * @dev Get the refundable stats of specific epoch and user account\r\n     */\r\n    function refundable(uint256 epoch, address user) public view returns (bool) {\r\n        BetInfo memory betInfo = ledger[epoch][user];\r\n        Round memory round = rounds[epoch];\r\n        return !round.oracleCalled && block.number > round.endBlock.add(bufferBlocks) && betInfo.amount != 0;\r\n    }\r\n\r\n    /**\r\n     * @dev Start round\r\n     * Previous round n-2 must end\r\n     */\r\n    function _safeStartRound(uint256 epoch) internal {\r\n        require(genesisStartOnce, \"Can only run after genesisStartRound is triggered\");\r\n        require(rounds[epoch - 2].endBlock != 0, \"Can only start round after round n-2 has ended\");\r\n        require(block.number >= rounds[epoch - 2].endBlock, \"Can only start new round after round n-2 endBlock\");\r\n        _startRound(epoch);\r\n    }\r\n\r\n    function _startRound(uint256 epoch) internal {\r\n        Round storage round = rounds[epoch];\r\n        round.startBlock = block.number;\r\n        round.lockBlock = block.number.add(intervalBlocks);\r\n        round.endBlock = block.number.add(intervalBlocks * 2);\r\n        round.epoch = epoch;\r\n        round.totalAmount = 0;\r\n\r\n        emit StartRound(epoch, block.number);\r\n    }\r\n\r\n    /**\r\n     * @dev Lock round\r\n     */\r\n    function _safeLockRound(uint256 epoch, int256 price) internal {\r\n        require(rounds[epoch].startBlock != 0, \"Can only lock round after round has started\");\r\n        require(block.number >= rounds[epoch].lockBlock, \"Can only lock round after lockBlock\");\r\n        require(block.number <= rounds[epoch].lockBlock.add(bufferBlocks), \"Can only lock round within bufferBlocks\");\r\n        _lockRound(epoch, price);\r\n    }\r\n\r\n    function _lockRound(uint256 epoch, int256 price) internal {\r\n        Round storage round = rounds[epoch];\r\n        round.lockPrice = price;\r\n\r\n        emit LockRound(epoch, block.number, round.lockPrice);\r\n    }\r\n\r\n    /**\r\n     * @dev End round\r\n     */\r\n    function _safeEndRound(uint256 epoch, int256 price) internal {\r\n        require(rounds[epoch].lockBlock != 0, \"Can only end round after round has locked\");\r\n        require(block.number >= rounds[epoch].endBlock, \"Can only end round after endBlock\");\r\n        require(block.number <= rounds[epoch].endBlock.add(bufferBlocks), \"Can only end round within bufferBlocks\");\r\n        _endRound(epoch, price);\r\n    }\r\n\r\n    function _endRound(uint256 epoch, int256 price) internal {\r\n        Round storage round = rounds[epoch];\r\n        round.closePrice = price;\r\n        round.oracleCalled = true;\r\n\r\n        emit EndRound(epoch, block.number, round.closePrice);\r\n    }\r\n\r\n    /**\r\n     * @dev Calculate rewards for round\r\n     */\r\n    function _calculateRewards(uint256 epoch) internal {\r\n        require(rewardRate.add(treasuryRate) == TOTAL_RATE, \"rewardRate and treasuryRate must add up to TOTAL_RATE\");\r\n        require(rounds[epoch].rewardBaseCalAmount == 0 && rounds[epoch].rewardAmount == 0, \"Rewards calculated\");\r\n        Round storage round = rounds[epoch];\r\n        uint256 rewardBaseCalAmount;\r\n        uint256 rewardAmount;\r\n        uint256 treasuryAmt;\r\n        // Bull wins\r\n        if (round.closePrice > round.lockPrice) {\r\n            rewardBaseCalAmount = round.bullAmount;\r\n            rewardAmount = round.totalAmount.mul(rewardRate).div(TOTAL_RATE);\r\n            treasuryAmt = round.totalAmount.mul(treasuryRate).div(TOTAL_RATE);\r\n        }\r\n        // Bear wins\r\n        else if (round.closePrice < round.lockPrice) {\r\n            rewardBaseCalAmount = round.bearAmount;\r\n            rewardAmount = round.totalAmount.mul(rewardRate).div(TOTAL_RATE);\r\n            treasuryAmt = round.totalAmount.mul(treasuryRate).div(TOTAL_RATE);\r\n        }\r\n        // House wins\r\n        else {\r\n            rewardBaseCalAmount = 0;\r\n            rewardAmount = 0;\r\n            treasuryAmt = round.totalAmount;\r\n        }\r\n        round.rewardBaseCalAmount = rewardBaseCalAmount;\r\n        round.rewardAmount = rewardAmount;\r\n\r\n        // Add to treasury\r\n        treasuryAmount = treasuryAmount.add(treasuryAmt);\r\n\r\n        emit RewardsCalculated(epoch, rewardBaseCalAmount, rewardAmount, treasuryAmt);\r\n    }\r\n\r\n    /**\r\n     * @dev Get latest recorded price from oracle\r\n     * If it falls below allowed buffer or has not updated, it would be invalid\r\n     */\r\n    function _getPriceFromOracle() internal returns (int256) {\r\n        uint256 leastAllowedTimestamp = block.timestamp.add(oracleUpdateAllowance);\r\n        (uint80 roundId, int256 price, , uint256 timestamp, ) = oracle.latestRoundData();\r\n        require(timestamp <= leastAllowedTimestamp, \"Oracle update exceeded max timestamp allowance\");\r\n        require(roundId > oracleLatestRoundId, \"Oracle update roundId must be larger than oracleLatestRoundId\");\r\n        oracleLatestRoundId = uint256(roundId);\r\n        return price;\r\n    }\r\n\r\n    function _safeTransferBNB(address to, uint256 value) internal {\r\n        (bool success, ) = to.call.value(value)(\"\");\r\n        require(success, \"TransferHelper: BNB_TRANSFER_FAILED\");\r\n    }\r\n\r\n    function _isContract(address addr) internal view returns (bool) {\r\n        uint256 size;\r\n        assembly {\r\n            size := extcodesize(addr)\r\n        }\r\n        return size > 0;\r\n    }\r\n\r\n    /**\r\n     * @dev Determine if a round is valid for receiving bets\r\n     * Round must have started and locked\r\n     * Current block must be within startBlock and endBlock\r\n     */\r\n    function _bettable(uint256 epoch) internal view returns (bool) {\r\n        return\r\n            rounds[epoch].startBlock != 0 &&\r\n            rounds[epoch].lockBlock != 0 &&\r\n            block.number > rounds[epoch].startBlock &&\r\n            block.number < rounds[epoch].lockBlock;\r\n    }\r\n}",
  "sourcePath": "E:/DAPP/betting/contracts/BnbPricePrediction.sol",
  "compiler": {
    "name": "solc",
    "version": "0.5.16+commit.9c3226ce.Emscripten.clang"
  },
  "schemaVersion": "3.4.1",
  "updatedAt": "2021-06-28T05:34:33.595Z",
  "devdoc": {
    "methods": {
      "betBear()": {
        "details": "Bet bear position"
      },
      "betBull()": {
        "details": "Bet bull position"
      },
      "claim(uint256)": {
        "details": "Claim reward"
      },
      "claimTreasury()": {
        "details": "Claim all rewards in treasury callable by admin"
      },
      "claimable(uint256,address)": {
        "details": "Get the claimable stats of specific epoch and user account"
      },
      "executeRound()": {
        "details": "Start the next round n, lock price for round n-1, end round n-2"
      },
      "genesisLockRound()": {
        "details": "Lock genesis round"
      },
      "genesisStartRound()": {
        "details": "Start genesis round"
      },
      "getUserRounds(address,uint256,uint256)": {
        "details": "Return round epochs that a user has participated"
      },
      "owner()": {
        "details": "Returns the address of the current owner."
      },
      "pause()": {
        "details": "called by the admin to pause, triggers stopped state"
      },
      "paused()": {
        "details": "Returns true if the contract is paused, and false otherwise."
      },
      "refundable(uint256,address)": {
        "details": "Get the refundable stats of specific epoch and user account"
      },
      "renounceOwnership()": {
        "details": "Leaves the contract without owner. It will not be possible to call `onlyOwner` functions anymore. Can only be called by the current owner.     * NOTE: Renouncing ownership will leave the contract without an owner, thereby removing any functionality that is only available to the owner."
      },
      "setAdmin(address)": {
        "details": "set admin address callable by owner"
      },
      "setBufferBlocks(uint256)": {
        "details": "set buffer blocks callable by admin"
      },
      "setIntervalBlocks(uint256)": {
        "details": "set interval blocks callable by admin"
      },
      "setMinBetAmount(uint256)": {
        "details": "set minBetAmount callable by admin"
      },
      "setOperator(address)": {
        "details": "set operator address callable by admin"
      },
      "setOracle(address)": {
        "details": "set Oracle address callable by admin"
      },
      "setOracleUpdateAllowance(uint256)": {
        "details": "set oracle update allowance callable by admin"
      },
      "setRewardRate(uint256)": {
        "details": "set reward rate callable by admin"
      },
      "setTreasuryRate(uint256)": {
        "details": "set treasury rate callable by admin"
      },
      "transferOwnership(address)": {
        "details": "Transfers ownership of the contract to a new account (`newOwner`). Can only be called by the current owner."
      },
      "unpause()": {
        "details": "called by the admin to unpause, returns to normal state Reset genesis state. Once paused, the rounds would need to be kickstarted by genesis"
      }
    }
  },
  "userdoc": {
    "methods": {}
  }
}